:100000000C946C010C94B3010C94B3010C94B301E7
:100010000C94B3010C94B3010C94B3010C94B30190
:100020000C94B3010C94B3010C94CD1A0C94A01B46
:100030000C944B120C94B3010C94B3010C94B301C7
:100040000C94B3010C94B3010C94B3010C94B30160
:100050000C94B3010C94B3120C94B3010C94B3013F
:100060000C94B3010C94B3010C94B3010C94B30140
:100070000C94B3010C94B3010C94B3010C94B30130
:100080000C94B3010C94B3010C94B3010C94B30120
:100090000C94B3010C94B3010C94B3010C94B30110
:1000A0000C94B3010C94B3010C94B30117000B0032
:1000B0000400160001000100010001000100010020
:1000C0000100010001000100010001000100010028
:1000D0000100010001000100010001000100010018
:1000E0000100010001000100010001000100010008
:1000F00001000100010001000100010001000100F8
:1001000001000100010001000100010001000100E7
:1001100001000100010001000100010001000100D7
:1001200001000100010001000100010012036B0049
:100130006500790062006F006100720064000000D9
:10014000160371006D006B006200750069006C00A1
:1001500064006500720000000403090409026D00D8
:10016000040100A0FA0904000001030101000921B3
:10017000110100012240000705810308000A09045B
:1001800001000103010200092111010001224D00BB
:100190000705820308000A090402000103000000A9
:1001A0000921110100012236000705830308000A16
:1001B00009040300010300000009211101000122CC
:1001C000390007058403200001120110010000001E
:1001D00008EDFE606001000102000105010906A1B1
:1001E00001050719E029E71500250195087501812A
:1001F00002050819012905950575019102950175FA
:100200000391010507190029F71500250195F875D7
:10021000018102C005010980A101850216010026A5
:1002200003001A81002A8300751095018100C00522
:100230000C0901A1018503160100269C021A010088
:100240002A9C02751095018100C005010902A101D7
:100250000901A100050919012905150025019505C8
:10026000750181029501750381010501093009318C
:100270001581257F95027508810609381581257F2E
:10028000950175088106050C0A38021581257F95B0
:100290000175088106C0C005010906A101050719FD
:1002A000E029E71500250195087501810295017582
:1002B0000881010508190129059505750191029527
:1002C00001750391010507190029FF150026FF009C
:1002D000950675088100C00011241FBECFEFDAE03B
:1002E000DEBFCDBF04B603FE27C08091F701909119
:1002F000F801A091F901B091FA018730904BA74025
:10030000B04BD1F41092F7011092F8011092F9015C
:100310001092FA0114BE84B7877F84BF0FB6F89499
:10032000A8958091600088618093600010926000C1
:100330000FBEE0E0F8E3099511E0A0E0B1E0E8ECE1
:10034000FDE302C005900D92AA32B107D9F721E072
:10035000AAE2B1E001C01D92A73FB207E1F70E94F7
:100360001C180C94E21E0C94000090E080E00895AC
:100370000895089581E00895089581E008950C940A
:10038000BA010E94C80A2FEF84E39CE0215080400C
:100390009040E1F700C000000C94D812FF920F9338
:1003A0001F93CF93DF938C01FC01C081D181809199
:1003B0004C0181113FC082818823B9F1CE010E9496
:1003C0002B10F82E682FCE010E94D50FBE018F2D65
:1003D0000E941503EC01B8010E94BF01882309F4B3
:1003E0004AC0B801CE010E942205882309F443C007
:1003F000C531F0E7DF0718F5C23080E7D80708F00D
:100400004BC0C115E0E7DE0789F1C130D047D1F11B
:1004100081E080932C0180932D01C801DF91CF9161
:100420001F910F91FF900C94BD01CE010E9402100C
:10043000F82ECCCFCE010E942B10BE01C9CFCC33F9
:1004400080E7D80709F4ACC0CD33D04709F7F801ED
:100450008281882309F4CBC010922D010E947D1265
:1004600090932B0180932A0180E2A7C0F80182813A
:1004700081110E94C10180E0DF91CF911F910F9106
:10048000FF900895F80182818823A9F38091B70134
:1004900081608093B701EFCFF8018281882309F44E
:1004A000BCCF0E94DC11811102C00E94C2110E94C7
:1004B000F91190E09093E9018093E801FE01E35087
:1004C000F0478091E8018160E231F105C8F4E55917
:1004D000FD4F0C94921E7D0289028D0291029502BD
:1004E00099029D02A102A502A902AD02B102B502C4
:1004F000B902BD02C102C502C9028091E801826051
:100500008093E8018091E8010E94FD110E94C80AD1
:10051000B2CF8091E8018460F3CF8091E8018860D8
:10052000EFCF8091E8018061EBCF8091E80180629C
:10053000E7CF8091E8018064E3CF8091E801806893
:10054000DFCF8091E8018460EACF8091E8018E7F5F
:10055000D7CF8091E8018D7FD3CF8091E8018B7F49
:10056000CFCF8091E801877FCBCF8091E8018F7E4C
:10057000C7CF8091E8018F7DC3CF8091E8018F7B49
:10058000BFCF8091E8018F77BBCF8091E8018B7F4F
:10059000EACF9091E801892F97FB87F98058B0CF77
:1005A000F8018281882361F010922C010E947D1253
:1005B00090932B0180932A0182E00E9452085BCF26
:1005C00080912C0181110FC080912A0190912B0103
:1005D0000E948912883C910530F486E20E94270728
:1005E00086E20E94030882E00E94590844CF80916D
:1005F0002D0181110FC080912A0190912B010E9441
:100600008912883C910530F487E20E94270787E22F
:100610000E94030880E2E8CF0C9471050C947305E6
:100620000C94BC010C9410030895E82FF0E0EE0F39
:10063000FF1FE70FF11DEE0FFF1FE60FF11DEE0F7D
:10064000FF1FE455FF4F859194910895FC01EE0F33
:10065000FF1FE45DFE4F8591949108950E9415035C
:100660000E94A104811520E4920708F08DC0811535
:1006700040E3940708F0E8C0803E910508F071C09F
:10068000803C910508F0CCC0883A910580F4853A09
:10069000910508F0CAC08130910509F46EC020F0C0
:1006A0008430910508F069C090E080E008958D3BAA
:1006B0009105D0F7883A910509F404C1893A91056A
:1006C00009F403C18A3A910509F402C18B3A9105F4
:1006D00009F401C18C3A910509F400C18B3B9105E5
:1006E00009F4FFC08C3B910509F4FEC08D3A9105D9
:1006F00009F4FDC0803B910509F4FCC08E3A9105D8
:1007000009F4FBC08F3A910509F4FAC0813B9105C9
:1007100009F4F9C0823B910509F4F8C0833B9105C7
:1007200009F4F7C0843B910509F4F6C0853B9105B7
:1007300009F4F5C0863B910509F4F4C0873B9105A7
:1007400009F4F3C0883B910509F4F2C0893B910597
:1007500009F4F1C08A3B910509F4F0C080E094E40B
:1007600008958F3F910509F048F4803F910508F006
:1007700067C0883E910508F097CF0895811520E263
:10078000920708F05FC00895811543E5940760F56E
:10079000811522E5920708F062C0811541E59407B2
:1007A00008F058C0811520E5920708F450C09C015C
:1007B00054E0369527955A95E1F7922F9370482F7C
:1007C000437021E030E002C0220F331F4A95E2F768
:1007D0003C68392B86958695837040E2849FC001E2
:1007E0001124822B932B0895811545E5940750F42D
:1007F000811524E5920708F446C0982F8827846F56
:10080000906A0895811546E5940708F450C09C014C
:1008100030569F702115304108F046CF9062089500
:10082000805C91090E9426030895853A910509F498
:1008300043C0863A910509F042C082E890E40895E9
:10084000906508959F70EECF9927906C08959F70E2
:10085000906A0895982F8827816F906A0895AC0157
:100860004370552721E030E002C0220F331F4A9524
:10087000E2F78695869540E2849FC0011124822B81
:10088000932B9C680895AC014370552721E030E01C
:1008900002C0220F331F4A95E2F78695869540E203
:1008A000849FC0011124822B932B9A680895982F5E
:1008B000882788279F71B2CF81E890E4089583E864
:1008C00090E4089582EE94E4089589EE94E4089506
:1008D0008AEE94E4089585EB94E4089586EB94E41D
:1008E000089583EB94E4089584EB94E4089587EBF2
:1008F00094E408958CEC94E408958DEC94E40895C8
:1009000083E895E408958AE895E4089582E995E4FA
:10091000089584E995E4089581E296E4089583E2D8
:1009200096E4089584E296E4089585E296E40895B5
:1009300086E296E4089587E296E408958AE296E4D2
:100940001CCF8238910549F1B0F48133910509F447
:100950005CC048F48932910509F452C08A3291058D
:1009600009F458C008958533910509F444C08933CA
:10097000910599F00895833E910531F138F4803E58
:10098000910591F0823E9105B1F00895863E910562
:1009900011F1873E910541F108952091E8012370FE
:1009A000C9F080EE90E008952091E80120FF12C088
:1009B00089E390E008952091E80122FF0BC024FF15
:1009C0002EC090E080E008952091E80122FD2AC029
:1009D00024FDF7CF08952091E80123FFFBCF24FDEC
:1009E000F0CF87EE90E008952091E80123FFF0CF4B
:1009F00086EE90E008952091E80125FD16C0089547
:100A00002091E80125FD14C008952091E80126FDFC
:100A100012C008952091E80126FD10C0089583EECC
:100A200090E0089582EE90E0089589E290E00895C4
:100A300085E390E008958AE290E0089581E390E0F4
:100A4000C9CF08950F931F93CF938C01FB0182812F
:100A5000811106C0C1E08C2FCF911F910F91089595
:100A6000C0913B01C11125C00531104799F70E9483
:100A7000210581E080933B010E947D1290933A0111
:100A80008093390110922E011092300110922F01A3
:100A90001092320110923101109234011092330100
:100AA00010923601109235011092380110923701E0
:100AB000D2CF8091390190913A010E948912883CED
:100AC000910540F680912E01E82FF0E0EE0FFF1F18
:100AD000E15DFE4F118300838F5F80932E01C0E0A4
:100AE000BACF0C94B8010C94B90185B7806885BF62
:100AF00085B7806885BF23982B9A2198299A6E988C
:100B0000769A57985F9AAEE3B1E01C92ECE3F1E07D
:100B1000108211961C9211820C940C03DF92EF92BA
:100B2000FF920F931F93CF93DF93CCE3D1E083E148
:100B3000E82E81E0F82E01E010E0DD24D394588106
:100B40001882F70181917F01E82FE295EF70F0E0C4
:100B500091A18F70980101C0220F8A95EAF7892F21
:100B6000822B81A392A1422F4095942392A380EAE5
:100B70008A95F1F781E0669980E09881892B8883D6
:100B80004F993BC092E0892B888381A1842381A364
:100B900082A1822B82A38881581741F0D092400114
:100BA0000E947D1290934201809341012196E5E1DC
:100BB000EE16E1E0FE0619F680914001882391F0DF
:100BC00080914101909142010E948912069750F054
:100BD00080913C0180933E0180913D0180933F01D3
:100BE000109240010E940E0381E0DF91CF911F918E
:100BF0000F91FF90EF90DF90089590E0C4CFE82F21
:100C0000F0E0E25CFE4F80810895089590934801E2
:100C1000809347010895E0914701F0914801309792
:100C200021F00190F081E02D099480E00895E09199
:100C30004701F0914801309721F00280F381E02DC7
:100C400009940895E0914701F0914801309721F00F
:100C50000480F581E02D099408952091450130919B
:100C600046012817390771F090934601809345019A
:100C7000E0914701F0914801309721F00680F7811B
:100C8000E02D0994089520914301309144012817E3
:100C9000390771F09093440180934301E09147013B
:100CA000F0914801309721F00084F185E02D0994FE
:100CB000089508950C9459060E9474120E947505B7
:100CC0000C943313BF92CF92DF92EF92FF920F9367
:100CD0001F93CF93DF93CDB7DEB72A970FB6F89463
:100CE000DEBF0FBECDBF0E948E058AE4C82E81E014
:100CF000D82E10E000E0B02E802F0E94FF05F82EC5
:100D0000F601E1906F01E81609F453C08091B70134
:100D100081FD0E940506EF24E0FC48C0E1FE49C0C9
:100D200091E081E09E83BF8221E030E0690102C052
:100D3000CC0CDD1C8A95E2F78F2D90E08C219D2153
:100D4000892B09F420E028870E947D128160782F8A
:100D50009A8789874E815F8168858A850E94FD0612
:100D6000F801E65BFE4F8081C826C0820E94B6155E
:100D70000E940B0690914901891779F10E940B0698
:100D8000809349012A960FB6F894DEBF0FBECDBFFF
:100D9000DF91CF911F910F91FF90EF90DF90CF9057
:100DA000BF900C94120301E010E0A5CF90E080E02A
:100DB000B9CF01301105B9F78FEF89838A831B8280
:100DC0000E947D128160782F9D838C8349815A8196
:100DD0006B818D810E94FD06C9CF2A960FB6F894CB
:100DE000DEBF0FBECDBFDF91CF911F910F91FF905E
:100DF000EF90DF90CF90BF900895CF93DF93CDB762
:100E0000DEB72B970FB6F894DEBF0FBECDBF4F8372
:100E1000588769877A878B871E821D8285E0FE014D
:100E20003796DE01119601900D928A95E1F749817E
:100E30005A816B817C818D819E812B960FB6F894AF
:100E4000DEBF0FBECDBFDF91CF910C947A0D88230A
:100E500009F4D8C0823871F40E940B0681FDD2C01B
:100E600089E30E94CB100E94931189E30E9408112C
:100E70000C949311833859F40E940B0680FDC2C074
:100E800083E50E94CB100E94931183E5EFCF843855
:100E900059F40E940B0682FDB5C087E40E94CB1076
:100EA0000E94931187E4E2CF9CEF980F913A18F4D7
:100EB0000E94CB10DDCF90E2980F983050F48770ED
:100EC00091E001C0990F8A95EAF7892F0E944A1193
:100ED000CFCF9BE5980F933070F4853A31F0863A86
:100EE00039F083E890E00C942D0681E890E0FBCF88
:100EF00082E890E0F8CF98E5980F953108F082C02D
:100F0000883A09F440C0893A09F440C08A3A09F4A1
:100F100040C08B3A09F440C08C3A09F440C08B3B86
:100F200009F440C08C3B09F440C08D3A09F440C03C
:100F3000803B09F440C08E3A09F440C08F3A09F46E
:100F400040C0813B09F440C0823B09F440C0833B70
:100F500009F440C0843B09F440C0853B09F440C01B
:100F6000863B09F440C0873B09F440C0883B09F444
:100F700040C0893B09F440C08A3B09F440C090E07E
:100F800080E00C94430682EE90E0FBCF89EE90E087
:100F9000F8CF8AEE90E0F5CF85EB90E0F2CF86EBCC
:100FA00090E0EFCF83EB90E0ECCF84EB90E0E9CFE3
:100FB00087EB90E0E6CF8CEC90E0E3CF8DEC90E017
:100FC000E0CF83E891E0DDCF8AE891E0DACF82E9F3
:100FD00091E0D7CF84E991E0D4CF81E292E0D1CF04
:100FE00083E292E0CECF84E292E0CBCF85E292E042
:100FF000C8CF86E292E0C5CF87E292E0C2CF8AE214
:1010000092E0BFCF0895882309F44BC0823871F471
:101010000E940B0681FF45C089E30E94CB100E940D
:10102000931189E30E9408110C949311833859F4A9
:101030000E940B0680FF35C083E50E94CB100E9402
:10104000931183E5EFCF843859F40E940B0682FF99
:1010500028C087E40E94CB100E94931187E4E2CF5E
:101060009CEF980F913AF0F290E2980F983050F47C
:10107000877091E001C0990F8A95EAF7892F0E9445
:101080005011D2CF9BE5980F933020F490E080E090
:101090000C942D06885A853120F490E080E00C9461
:1010A00043060895882321F00E944A110C9493115D
:1010B0000895882321F00E9450110C9493110895F3
:1010C0008F929F92AF92BF92DF92EF92FF920F9317
:1010D0001F93CF93DF937C01D62FC72FFC0105818F
:1010E00002950F70128111110E9469110E94C410A3
:1010F000D82E882371F0112321F180E28D0F8830E2
:1011000000F182E00E94AE100E94C41091E0D82E3F
:10111000D926EC2FE295EF70F0E0EF56F74F0C94E4
:10112000921EA308A308F308F30835095109D00853
:10113000D0085C09D008F409F409670AD008D0087F
:10114000700AD12CE6CF0C2F0F70C07F11F00295E2
:10115000007F1123A9F0002359F080E28D0F883021
:1011600010F0D11109C0802F0E944A110E949311E2
:101170008D2F0E94270714C0802F0E945B11F6CF8D
:101180008D2F0E940308002359F080E28D0F8830D4
:1011900010F0D11124C0802F0E9450110E94931191
:1011A000DD2009F4A4C10E94A11080FDA0C1F701B7
:1011B00012820E949B100E94190FC7010E94830A8D
:1011C0000E949B10DF91CF911F910F91FF90EF90A4
:1011D000DF90BF90AF909F908F900C943A0F802F2C
:1011E0000E946111DBCFFC2FFF70BF2EC07FC03289
:1011F00019F0B29480EFB822DD2369F0D13029F1E3
:10120000112369F1002359F0F701858180FFB0CFE8
:101210008F70858304C0112361F0011104C08B2DF0
:101220000E945208BDCF8B2D0130D1F70E947D1155
:10123000B7CF011106C00E9480118B2D0E94590862
:10124000AFCF013009F4ACCFF6CF112321F0063037
:1012500008F0A6CFE4CF053008F0A2CFEECF0023F0
:1012600061F38D2F0E9403089BCF8C2F8695869566
:10127000837069F0813009F093CF8D2F9C2F93708C
:10128000111102C090E080E00E94430689CF8D2FAB
:101290009C2F9370111102C090E080E00E942D06F7
:1012A0007FCF8D2F112329F00E94BF140E94AB1510
:1012B00077CF0E942715FACF8C2F837009F047C093
:1012C00011116ECF2D2F229526952770220F220FF8
:1012D0006D2F6F70862E912CB12CA12C022E04C084
:1012E000880C991CAA1CBB1C0A94D2F760E070E021
:1012F000CB01D4FF0FC06FE070E080E090E004C04D
:10130000660F771F881F991F2A95D2F760957095F1
:1013100080959095C695C695C370C23051F080F403
:10132000682979298A299B29C13071F00E94C20E4F
:1013300037CF682979298A299B290E94DE0E30CF70
:101340000E94C20EC501B4010E94A60E29CF869547
:10135000112311F08C2F8170882309F421CF2D2FB8
:10136000229526952770220F220F6D2F6F70862EE3
:10137000912CB12CA12C022E04C0880C991CAA1C03
:10138000BB1C0A94D2F760E070E0CB01D4FF0FC021
:101390006FE070E080E090E004C0660F771F881F68
:1013A000991F2A95D2F76095709580959095C6956E
:1013B000C695C370C23051F080F4682979298A2912
:1013C0009B29C13071F00E949C0FEACE68297929CF
:1013D0008A299B290E94B80FE3CE0E949C0FC50169
:1013E000B4010E94800FDCCEE0E2ED0FE53108F0A1
:1013F00062C0F0E0E250F64F0C94921E130A130AFA
:10140000130A130A130A130A130A130A130A130AF4
:10141000130A130A130A130A130A130A200A2E0ABC
:10142000350A3C0A460ADF708C2F8F71112321F098
:101430000E94190F8D2FF4CE0E943A0F8D2FFECEF1
:10144000112341F0053008F0ABCE8C2F8F710E9434
:101450005F0FA6CE063008F0A3CEF7CF8C2F8F718A
:10146000112339F00E94190F9BCE8C2F8F711123FD
:10147000C9F30E943A0F94CE112329F08C2F8F715B
:101480000E94040F8DCE0E94FA0E8ACE112349F0DD
:10149000CF718C2F0E94190F63E08C2F0E94A51032
:1014A0007FCE81E00E94AE10023008F479CE82E057
:1014B0000E94AE1075CE112329F0011159CE8C2F48
:1014C0008F71D0CF0111CDCE8C2F8F71D2CF4C2FF9
:1014D0004F706D2FC7010E94B5010E94230E60CE90
:1014E0004C2F4F706D2FC7010E94140359CEDF910E
:1014F000CF911F910F91FF90EF90DF90BF90AF9031
:101500009F908F9008950F931F93CF93DF93EC01DB
:10151000988189812B813C81232B39F08F3F19F4ED
:1015200081E09F3F19F080E001C081E080FD17C09D
:10153000CE010E94CE01882391F0688179818A8151
:101540000E9477108C010E94D40F0E949B0EB8015C
:10155000CE01DF91CF911F910F910C946008DF9124
:10156000CF911F910F9108950E9469110E947A11E5
:101570000E943C110E9493110E9458160E94AB15C4
:1015800090E080E00E942D0690E080E00C944306FD
:101590000E9458110C94B40A0E946D10E92FE29534
:1015A000EF70E250EE30E0F4F0E0E752F54F0C94CB
:1015B000921EE70AE70AF00AF00AF20AF00AF00AB5
:1015C000F00AE70AE70AF70AF00AF00AF70A803F8A
:1015D00019F020F4803E20F481E00895843FE1F387
:1015E00080E00895803EC0F3813FD1F7F5CF93FBB3
:1015F000882780F90895CF93DF9300D000D01F9201
:10160000CDB7DEB70F900F900F900F900F90DF9136
:10161000CF910895CF93DF9300D000D000D0CDB705
:10162000DEB726960FB6F894DEBF0FBECDBFDF91B2
:10163000CF9108951F93CF93DF93C0914D0116E092
:1016400080914E018C1304C0DF91CF911F910895BA
:10165000D0E01C9FF0011D9FF00D1124E15BFE4FB7
:101660004081518162817381848195810E940A0B3E
:101670002196C770E5CF40917F0150918001609124
:1016800081017091820180918301909184010C9479
:101690000A0B1F93CF93DF9380918401807FD1F455
:1016A000809181018823B1F080914D01D0914E014C
:1016B000B0917F01C09180014091820150918301DE
:1016C000A1E0BF3F09F0A0E0BA016095709516E077
:1016D000D81304C0DF91CF911F91089521E04115E7
:1016E000510521F02A2FCF3F09F020E090E020FDA6
:1016F00038C0189FF001199FF00D1124E15BFE4FD7
:1017000021812C132EC020812B132BC0228121116B
:1017100028C0238134812417350700F1241B350BA1
:10172000283C3105F0F4209184012F702061209332
:10173000840126E0289FF001299FF00D1124EC5A26
:10174000FE4F80818F70806180838FE791E00E94DF
:10175000830ADF91CF911F910C941A0B260F371F2C
:10176000DFCF01968770B4CFAF92BF92CF92DF9256
:10177000EF92FF920F931F93CF93DF93CDB7DEB716
:1017800061970FB6F894DEBF0FBECDBF8C0185E028
:10179000F801DE011D9601900D928A95E1F7D801BE
:1017A0004C9111965C9111971296EC9030917F01BB
:1017B00060918001809182019091830121E00097E6
:1017C00031F06F3F19F421E03F3F09F020E0B22FE4
:1017D000B170BB2E20FD80C1F801C380D480A090E1
:1017E0008101AA2009F427C1C816D906D0F1D60173
:1017F000A81BB90BCD01FF24F394883C910508F098
:10180000F12C80918401982F907FFF2009F4CAC0A9
:10181000911187C0FE2C651329C0341327C0E11035
:1018200025C08F708061809384010E943B0B8FE7FD
:1018300091E00E94830A80918401F80185838F2DB5
:1018400061960FB6F894DEBF0FBECDBFDF91CF918A
:101850001F910F91FF90EF90DF90CF90BF90AF90CE
:101860000895809590958C0D9D1DC5CF81E0CD2864
:1018700031F05F3F19F481E04F3F09F080E080FDD7
:1018800024C081E08E25F82FF170DF2E80FF3FC04D
:1018900080914D0120914E0136E0821318C04D8792
:1018A0005E878D859E850E946D10292F22952F7051
:1018B000223008F1243030F59F7009F1D8011596D7
:1018C0009C91907FE1F4FB2CBACF80E0DCCF90E0DC
:1018D000389FF001399FF00D1124E15BFE4F6181CB
:1018E000561306C06081461303C062816E110FC09B
:1018F00001968770D2CF9F7011F0882321F3805E0C
:10190000883008F3C8010E94830ABD2CDCCFEE208A
:1019100009F495CF80918401816080938401F12C3A
:101920008ECF651312C0341310C0E1100EC0F80141
:101930008583C8010E94830A86E0F801AFE7B1E021
:1019400001900D928A95E1F741C04D875E878D85A4
:101950009E850E94CC0A882309F4C8C0EE2009F4B1
:10196000C5C080918401803270F020917F01309158
:10197000800138872F831986DB86CA868C87CE0143
:1019800007960E94830A86E0F801AFE7B1E0019074
:101990000D928A95E1F70E94490B0E943B0BFF24B0
:1019A000F3944DCF911115C07C2DD98AC88A6E2D24
:1019B00089890E94FB0A8FE791E00E94830A86E0F2
:1019C000EFE7F1E0DF011D928A95E9F70E943B0BFA
:1019D00036CF651312C0341310C0E1100EC0F801E9
:1019E0008583C8010E94830AEFE7F1E086E0DF010A
:1019F0001D928A95E9F7FA2C22CF4D875E878D8557
:101A00009E850E94CC0A882309F470C0EE2009F458
:101A10006DC080918401803208F4B5CF20917F01A0
:101A2000309180013A8329831B82DD82CC828E83B0
:101A3000CE010196A6CFC816D90638F1F601E81BEB
:101A4000F90BCF01F12C883C910508F03DC0FE2C2C
:101A5000EE2009F44BC0651326C0341324C08091D6
:101A6000840180FD17C0982F907FA1F0D8011596B2
:101A70008C931597903F09F45CCF982F907F905FDF
:101A80008F70892B15968C9354CF809590958C0DE3
:101A90009D1DD8CF86E0F801AFE7B1E001900D922F
:101AA0008A95E1F7CCCE4D875E878D859E850E9415
:101AB000CC0A811168CF8091840181608093840178
:101AC000C8010E94830ABBCE7C2DD98AC88A6E2D9C
:101AD00089890E94FB0A73CFEE2041F04D875E8713
:101AE0008D859E850E94CC0A81114DCFC8010E9430
:101AF000830A55CF1F93CF93DF93CDB7DEB72C97D3
:101B00000FB6F894DEBF0FBECDBF4F8358876987ED
:101B10007A878B879C87CE0107960E94B40B882317
:101B200009F442C09F8188852A853B85232B39F0A3
:101B30008F3F19F481E09F3F19F080E001C081E000
:101B400080FD08C04F81588569857A858B859C8585
:101B50000E940A0B16E080914D0190914E01891769
:101B600009F467C0819FC0011124815B9E4F0E94D0
:101B7000B40B882309F45DC0E0914D011E9FF00174
:101B80001124E15BFE4F4081518162817381848128
:101B900095810E940A0B80914D0190E0019687701B
:101BA000992780934D01D7CF86E0FE013796DE015D
:101BB000119601900D928A95E1F79F8188852A857B
:101BC0003B85232B39F08F3F19F481E09F3F19F0BB
:101BD00080E001C081E080FDBDCF20914E0130E06A
:101BE000C90101968770992740914D014817190640
:101BF00099F096E0929FD001939FB00D1124A15BC4
:101C0000BE4FFE01319601900D929A95E1F78093B7
:101C10004E010E941A0B9ECF0E94C80A10924E01DC
:101C200010924D0186E0EFE7F1E0DF011D928A9509
:101C3000E9F72C960FB6F894DEBF0FBECDBFDF914B
:101C4000CF911F910895EF92FF920F931F93CF931F
:101C5000DF938C01892B81F0F12CEE24E394E801D1
:101C60002196F8018491843770F4843008F05FC0C5
:101C70008130B1F08230A1F1DF91CF911F910F91AE
:101C8000FF90EF900895853709F44CC008F43DC0EB
:101C90009CE7980F903780F78F770E94030849C020
:101CA0000E5F1F4FFE01849190E2980F983060F410
:101CB0008770FE2D01C0FF0F8A95EAF78F2F0E94D3
:101CC0006C110E94931102C00E9427078F2D815032
:101CD00030F2EFE9FFE03197F1F700C00000F7CFF5
:101CE0000E5F1F4FFE01849190E2980F983050F4E0
:101CF0008770FE2D01C0FF0F8A95EAF78F2F0E9493
:101D00007211DFCF0E940308E1CF0E5F1F4FFE016B
:101D1000C491C150D8F28FE99FE00197F1F700C05C
:101D20000000F7CF0E5F1F4FFE01F490CFCF0E944F
:101D300027078E01CBCF089560938E0170938F019A
:101D400080939001909391010C94B40A0F931F9388
:101D500000918E0110918F0120919001309191019D
:101D6000DC01CB01802B912BA22BB32B80938E0116
:101D700090938F01A0939001B09391011F910F91C7
:101D80000C94B40A0F931F9300918E0110918F0150
:101D90002091900130919101DC01CB0180239123AE
:101DA000A223B32380938E0190938F01A09390017F
:101DB000B09391011F910F910C94B40A0F931F934C
:101DC00000918E0110918F0120919001309191012D
:101DD000DC01CB0180279127A227B32780938E01B6
:101DE00090938F01A0939001B09391011F910F9157
:101DF0000C94B40A10928A0110928B0110928C01FB
:101E000010928D010C94B40A41E050E060E070E063
:101E100004C0440F551F661F771F8A95D2F7409361
:101E20008A0150938B0160938C0170938D010C9407
:101E3000B40A41E050E060E070E004C0440F551F78
:101E4000661F771F8A95D2F780918A0190918B0146
:101E5000A0918C01B0918D01842B952BA62BB72BD3
:101E600080938A0190938B01A0938C01B0938D0194
:101E70000C94B40A41E050E060E070E004C0440F0C
:101E8000551F661F771F8A95D2F74095509560952C
:101E9000709580918A0190918B01A0918C01B091F5
:101EA0008D0184239523A623B72380938A019093E1
:101EB0008B01A0938C01B0938D010C94B40A41E086
:101EC00050E060E070E004C0440F551F661F771FAC
:101ED0008A95D2F780918A0190918B01A0918C0113
:101EE000B0918D0184279527A627B72780938A0173
:101EF00090938B01A0938C01B0938D010C94B40A44
:101F00000F931F9300918A0110918B0120918C01F6
:101F100030918D01DC01CB01802B912BA22BB32BB7
:101F200080938A0190938B01A0938C01B0938D01D3
:101F30001F910F910C94B40A0F931F9300918A0183
:101F400010918B0120918C0130918D01DC01CB012E
:101F500080239123A223B32380938A0190938B0142
:101F6000A0938C01B0938D011F910F910C94B40A32
:101F70000F931F9300918A0110918B0120918C0186
:101F800030918D01DC01CB0180279127A227B32757
:101F900080938A0190938B01A0938C01B0938D0163
:101FA0001F910F910C94B40A0895990F890F982FDF
:101FB000977071E001C0770F9A95EAF7869586953C
:101FC000869525E0829FC001112450E040E0A62FB5
:101FD000B0E0FC01E40FF51FEB57FE4F60819D015F
:101FE000042E02C0369527950A94E2F721702195B8
:101FF00026272723262720834F5F5F4F4530510533
:1020000041F70895990F890F982F977086958695B7
:10201000869525E0829FA001112470E060E080E0B9
:10202000FA01E60FF71FEB57FE4F208130E0092E33
:1020300002C0369527950A94E2F721703327062EC1
:1020400001C0220F0A94EAF7822B6F5F7F4F653041
:10205000710531F70895BF92CF92DF92EF92FF9210
:102060000F931F93CF93DF938C01C0908A01D09080
:102070008B01E0908C01F0908D0180918E01909108
:102080008F01A0919001B0919101C82AD92AEA2A22
:10209000FB2ACFE1D0E0BC2ED701C6010C2E04C034
:1020A000B695A795979587950A94D2F780FD0EC0AF
:1020B000219788F7B12C8B2DDF91CF911F910F9134
:1020C000FF90EF90DF90CF90BF900895B8018C2FD4
:1020D0000E942E03019761F3EECFCF93DF93EC01C3
:1020E0000E942B10BE01DF91CF910C942E031F9301
:1020F000CF93DF93EB0190914C01992331F0CB0109
:10210000DF91CF911F910C946D10882379F0CB0152
:102110000E942B10182F682FCE010E94D50FBE01F0
:10212000812FDF91CF911F910C942E03CB010E9440
:102130000210182FF4CF8091920185958595859591
:102140000895809192018770089598E0899F900189
:102150001124622B609392010C94190F90919201BB
:102160008095892380939201282F277061F4282F6E
:10217000082E000C330B9217130629F085958595D0
:1021800085950C943A0F089590919201977081E093
:1021900009F480E00895909112019923E1F0909163
:1021A000E80197FF18C0E82FE695E695E695EF3130
:1021B00039F12091000130910101E20FF32FF11D5F
:1021C000877021E030E001C0220F8A95EAF7818113
:1021D000822B818308952091000130910101F90142
:1021E00032969FEF40E05191851751F09F3F19F4CF
:1021F000511101C0942F4F5F4E31A9F79F3F09F451
:102200000895290F311D97FD3A95F90182830895AC
:10221000909112019923F1F09091E80197FF1AC073
:10222000E82FE695E695E695EF3129F1209100013A
:1022300030910101E20FF32FF11D282F277081E06B
:1022400090E001C0880F2A95EAF780959181892353
:10225000818308952091000130910101F9013296A6
:10226000205E3F4F9191891303C0DF0111971C92AB
:10227000E217F307B9F7089581E090E0E0910001DB
:10228000F0910101E80FF91F10820196803291054B
:10229000A9F708959091B601892B8093B60108950E
:1022A000982F90958091B60189238093B601089567
:1022B0001092B60108959091B501892B8093B501D4
:1022C0000895982F90958091B50189238093B50149
:1022D00008951092B50108959091B401892B8093CF
:1022E000B4010895982F90958091B401892380932B
:1022F000B40108951092B401089580939301089554
:102300001092930108952091000130910101F9018B
:102310003196205E3F4F80E0919191118F5FE217DF
:10232000F307D1F70895E0910001F0910101809148
:10233000B6018083E0910001F091010180819091CC
:10234000B501892B8083E0910001F091010180812A
:102350009091B401892B808390919301992361F02E
:10236000E0910001F09101018081892B80830E941E
:1023700083118111109293018091000190910101CC
:102380000C9417066DEE7EEF90E080E00E94CC1E6C
:1023900060E082E090E00E94BA1E60E083E090E09E
:1023A0000E94BA1E60E084E090E00E94BA1E60E0E5
:1023B00085E090E00C94BA1E90E080E00E94B41E8C
:1023C00021E08D3E9E4F09F020E0822F089582E0AB
:1023D00090E00C94AC1E682F82E090E00C94BA1E42
:1023E00083E090E00C94AC1E682F83E090E00C94A6
:1023F000BA1E84E090E00C94AC1E682F84E090E05C
:102400000C94BA1E8091EE01843039F11092B8011B
:1024100088E190E020E40FB6F894A89580936000DE
:102420000FBE2093600080E00E94120383B7817F7B
:10243000846083BF83B7816083BF7894889583B7B6
:102440008E7F83BF0FB6F894A89580916000886155
:1024500080936000109260000FBE08950895089563
:102460000E942E120E948E050E942F1280E00E9470
:10247000FF0591E0811107C081E00E94FF0591E016
:10248000811101C090E0892F08950E94C80A0E941E
:102490000B060C9412031F920F920FB60F92112489
:1024A0008F939F93AF93BF938091B801811113C015
:1024B0008091E4019091E501A091E601B091E701DE
:1024C0004196A11DB11D8093E4019093E501A09375
:1024D000E601B093E701BF91AF919F918F910F906B
:1024E0000FBE0F901F90189582E084BD93E095BDBC
:1024F0009AEF97BD80936E0008952FB7F89480915E
:10250000E4019091E501A091E601B091E7012FBFB0
:102510000895CF92DF92EF92FF920F931F932FB700
:10252000F8944091E4015091E5016091E6017091C9
:10253000E7012FBF6A017B01EE24FF248C0130E00C
:1025400020E0C016D106E206F30650F0481B590BF6
:10255000CA011F910F91FF90EF90DF90CF900895E7
:1025600041505109F3CF1F920F920FB60F921124D1
:102570008F939F93AF93BF938091E4019091E50176
:10258000A091E601B091E7010196A11DB11D8093D4
:10259000E4019093E501A093E601B093E701BF91B8
:1025A000AF919F918F910F900FBE0F901F90189534
:1025B0000E94521AF8942FEF87EA91E6215080404A
:1025C0009040E1F700C0000087E090EBDC018093D1
:1025D000F7019093F801A093F901B093FA0188E113
:1025E0009CE00FB6F894A895809360000FBE90937E
:1025F0006000FFCF0F931F93CF93DF93C0E0082FAE
:1026000010E08C2F0E94FF05D82F80FF08C060E0EB
:102610007C2F80E00E94150308171907A1F0D1FD57
:102620000AC0C13031F480E0DF91CF911F910F914A
:102630000895C1E0E6CF61E07C2F80E00E941503A1
:102640000817190771F781E0EFCFCF93C82F8CE2FD
:102650000E94FA12882321F08C2FCF910C94FA1249
:1026600080E0CF910895CF930E94DC11811102C0C8
:102670000E94C211C5E608C00E948E058FE39CE946
:102680000197F1F700C00000C150B1F789E20E9444
:1026900025138111EFC08AE20E94251381110E9447
:1026A000C21185E00E94251381110E94D8120E9458
:1026B000E7118093B70187E00E942513882371F00A
:1026C0008BE10E942513882309F4B1C09091B701D2
:1026D000892F8D7F91FF82608093B7018091B70130
:1026E0000E94EB110E94F91190E09093E901809310
:1026F000E80180EE0E942513882341F09091E801C3
:10270000892F8E7F90FF81608093E80189E30E948A
:102710002513882341F09091E801892F8D7F91FF47
:1027200082608093E80182EE0E942513882341F0A5
:102730009091E801892F8B7F92FF84608093E8015C
:1027400086EE0E942513882341F09091E801892F9D
:10275000877F93FF88608093E80183EE0E942513B2
:10276000882341F09091E801892F8F7E94FF80614A
:102770008093E80185E30E942513882341F090911E
:10278000E801892F8F7D95FF80628093E80181E3C6
:102790000E942513882341F09091E801892F8F7BB7
:1027A00096FF80648093E80181E10E9425138823CD
:1027B00041F09091E801892F97FB87F98058809329
:1027C000E8018091E8010E94FD1187E20E94251333
:1027D000C82F8EE10E9425138111C2608FE10E94F3
:1027E00025138111C46080E20E9425138111C86005
:1027F00081E20E9425138111C06182E20E942513AB
:102800008111C06283E20E9425138111C06484E2B9
:102810000E942513882341F1C0688C2F0E94F41177
:102820006C2F70E090E080E0CF910C949C0E8EE0D5
:102830000E942513882339F09091B701892F8B7F4F
:1028400092FF846049CF80E10E9425139091B701E7
:10285000882329F0892F877F93FF88603DCF892FB8
:102860008E7F90FF816038CFC111D7CF0E94F011C9
:10287000682FD7CFCF9108958091BB0180FF12C000
:102880006091050185E0689FB001112475956795F9
:102890007595679560387105A8F561157105A1F109
:1028A000862F089581FF09C06091050185E0689F2A
:1028B000B001112475956795EDCF82FF07C0609137
:1028C000050185E0689FB0011124E4CF2091BC018F
:1028D0002223A9F0909104016091050185E0689F91
:1028E000B00111242917B0F6269FA001279F500D93
:1028F0001124692F70E0CA010E947E1ECBCF65E0D3
:1029000070E0CECF8FE7089581E008958091BB01FC
:1029100080FF0CC06091030170E075956795759517
:1029200067956115710549F1862F089581FF06C0ED
:102930006091030170E075956795F3CF6091030195
:1029400082FD0BC09091BC019923A1F0609102011E
:1029500080910301961738F0682F70E06038710598
:1029600000F38FE70895899FC001112470E00E9451
:102970007E1EF4CF61E070E0D7CF81E00895803F04
:1029800031F40E943C1481958093BF010895813FEA
:1029900019F40E943C14F8CF823F31F40E943C1499
:1029A00081958093BE010895833F19F40E943C14E1
:1029B000F8CF893F29F40E9486148093C0010895BE
:1029C0008A3F21F40E9486148195F7CF8B3F31F422
:1029D0000E94861481958093C10108958C3F19F45B
:1029E0000E948614F8CF843F31F48091BD0181604C
:1029F0008093BD010895853F21F48091BD018260DF
:102A0000F7CF863F21F48091BD018460F1CF873FED
:102A100021F48091BD018860EBCF883F21F4809143
:102A2000BD018061E5CF8D3F31F48091BB018160B4
:102A30008093BB0108958E3F21F48091BB01826099
:102A4000F7CF8F3FB9F78091BB018460F1CF803F12
:102A5000C1F48091BF0187FD1092BF018091BE013A
:102A600081110EC08091BF0181110AC08091C00107
:102A7000811106C08091C101811102C01092BC0178
:102A80000895813F29F48091BF0118162CF3E6CFF9
:102A90009091BE01823F29F497FFE0CF1092BE01D2
:102AA000DDCF833F19F41916CCF3D8CF893F39F421
:102AB0008091C001181694F61092C001CFCF8A3FC2
:102AC00029F48091C00187FFC9CFF6CF8B3F39F43D
:102AD0008091C10187FFC2CF1092C101BFCF8C3F4F
:102AE00029F48091C1011816BCF3B8CF843F31F4AA
:102AF0008091BD018E7F8093BD01B0CF853F21F4D1
:102B00008091BD018D7FF7CF863F21F48091BD017B
:102B10008B7FF1CF873F21F48091BD01877FEBCF81
:102B2000883F21F48091BD018F7EE5CF8D3F31F448
:102B30008091BB018E7F8093BB0190CF8E3F21F4AB
:102B40008091BB018D7FF7CF8F3F09F087CF8091B8
:102B5000BB018B7FF0CF8DEB91E00E9422060E949B
:102B60007D129093BA018093B90108951F93CF937A
:102B7000DF938091B9019091BA010E948912AC0152
:102B80009091BC012091060130E0911106C0209186
:102B900007018AE0289F900111244217530780F013
:102BA0008091BE01C091BF011091C001D091C101BF
:102BB00081110AC0C11178C0111176C0D11174C041
:102BC000DF91CF911F9108959F3F19F09F5F9093E0
:102BD000BC01181624F40E943C148093BE0180911D
:102BE000BE0187FF05C00E943C1481958093BE0101
:102BF0001C1624F40E943C148093BF018091BF01F5
:102C000087FF05C00E943C1481958093BF016091AD
:102C1000BE01662331F1C091BF01CC2311F1062E14
:102C2000000C770B880B990B0E94851D23E333E37F
:102C300043E35FE30E94E91D0E944D1D6093BE01C6
:102C40006C2FCC0F770B880B990B0E94851D23E30B
:102C500033E343E35FE30E94E91D0E944D1D60934F
:102C6000BF01111624F40E9486148093C001809144
:102C7000C00187FF05C00E94861481958093C00122
:102C80001D1624F40E9486148093C1018091C10115
:102C900087FF05C00E94861481958093C101DF9152
:102CA000CF911F910C94AB159F3F09F08FCFA0CF10
:102CB00085E0EDEBF1E0DF011D928A95E9F71092D6
:102CC000BC011092BB0108958091E2010895CF9359
:102CD000DF9300D01F92CDB7DEB79C018091EE014B
:102CE000843019F593E099833B832A839093E9001C
:102CF0008FEF9091E800815095FD06C095ED9A9573
:102D0000F1F700008111F5CF8091E80085FF0DC03B
:102D100050E040E063E070E0CE0101960E94C218EE
:102D20008091E8008E778093E8000F900F900F90CD
:102D3000DF91CF910895CF93DF9300D01F92CDB74D
:102D4000DEB72091EE01243031F522E0298380584E
:102D500091099B838A8383E08093E9008FEF9091B0
:102D6000E800815095FD06C095ED9A95F1F70000B9
:102D70008111F5CF8091E80085FF0DC050E040E063
:102D800063E070E0CE0101960E94C2188091E800D5
:102D90008E778093E8000F900F900F90DF91CF9186
:102DA00008959C018091EE018430F9F482E08093D3
:102DB000E9009FEF8091E800915085FD06C085ED08
:102DC0008A95F1F700009111F5CF8091E80085FF19
:102DD0000CC050E040E065E070E0C9010E94C218FC
:102DE0008091E8008E778093E8000895CF93DF9379
:102DF000EC018091EE018430F1F49091120199235D
:102E0000E9F09091E80197FF19C08093E9008FEFF6
:102E10009091E800815095FD06C095E19A95F1F7F3
:102E200000008111F5CF8091E80050E040E060E2C1
:102E300070E085FD1AC0DF91CF91089581E0809305
:102E4000E9008FEF9091E800815095FD06C095ED67
:102E50009A95F1F700008111F5CF8091E80085FF88
:102E6000EACF50E040E068E070E0CE010E94C21876
:102E70008091E8008E778093E80080E2FE01A2EC6A
:102E8000B1E001900D928A95E1F7D5CF8091ED01E7
:102E9000811109C00E94521A0E94AF1A8091E2006B
:102EA00084608093E20008951092ED0108950895E2
:102EB00008950C94451242E061EC81E00E94D01923
:102EC00042E061EC82E00E94D01942E061EC83E0D4
:102ED0000E94D01942E261EC84E00C94D0198091F8
:102EE000F001833009F455C030F4813071F1823043
:102EF00009F491C008958A3009F47DC08B3009F43B
:102F000063C0893009F044C08091EF01813209F03B
:102F10003FC08091F3019091F401009711F0039765
:102F2000B9F58091E800877F8093E8008091E80000
:102F300082FF2AC08091F1008093E2018091E80035
:102F40008B778093E8000C94041A8091EF01813A0A
:102F5000F9F48091E800877F8093E8008091F30185
:102F60009091F401892B61F460E282EC91E070E0D1
:102F70000E9411198091E8008B778093E8000895F2
:102F800060E090E080E0F3CF8091EE018111CECF40
:102F900008958091EF01813AD9F78091F3019091E2
:102FA000F401892BA9F78091E800877F8093E800DE
:102FB0008091E80080FFFCCF809112018093F100A6
:102FC0008091E8008E77BDCF8091EF01813201F7CB
:102FD0008091F3019091F401892BD1F68091E80062
:102FE000877F8093E8000E94041A8091F10180930A
:102FF00012010C94C80A8091EF01813249F6809148
:10300000E800877F8093E8000E94041A8091F20113
:103010008093E30108958091EF01813A09F0B8CFE0
:103020008091E800877F8093E8008091E80080FF2E
:10303000FCCF8091E301C2CF84B7877F84BF0FB6F6
:10304000F894A89580916000886180936000109248
:1030500060000FBE80E880936100109261000E94C2
:103060005A060E94521A0E94AF1A8091E2008460B0
:103070008093E20078940E94311D0E945C0688E0F3
:1030800091E00E9406068091EE01853019F00E94C1
:103090006206F9CF0E9402128091EC01882399F315
:1030A0000E943012882379F30E94AC18ECCF292FAC
:1030B00033272330310579F158F421303105F1F00F
:1030C0002230310519F190E080E030E020E01AC0B4
:1030D0002132310599F122323105A9F7643098F790
:1030E00070E0FB01EE0FFF1FE75EFE4F2081318194
:1030F0006B5E7E4FFB01808190E004C082E190E036
:1031000029EC31E0FA013183208308958DE690E0C7
:103110002CE531E0F7CF99278130910561F028F057
:10312000029789F6ECE2F1E002C0E8E5F1E0849173
:1031300090E09F01E7CFE0E4F1E0F9CF643008F0E0
:10314000C2CFE62FF0E0EE0FFF1FEF5DFE4F2081B4
:10315000318189E090E0D6CF80E189BD82E189BDEF
:1031600009B400FEFDCF8091D8008F7D8093D800F8
:103170008091E00082608093E0008091E00081FD1A
:10318000FCCF0895AF92BF92CF92DF92FF920F9340
:103190001F93CF93DF936C01EB018A010E94231AE6
:1031A000F82E811123C00115110539F0F801808135
:1031B0009181C81BD90BC80ED91EB12CA12C209708
:1031C000A9F08091E80085FD22C08091E8008E770B
:1031D0008093E80001151105A1F0F801808191812B
:1031E000A80EB91EB182A08285E0F82E8F2DDF9146
:1031F000CF911F910F91FF90DF90CF90BF90AF9034
:1032000008950E94231A8823D1F2F82EEFCFF601F9
:1032100081916F018093F1002197FFEFAF1ABF0AF0
:10322000CECFFC018091F5019091F60186179707AA
:10323000A0F06115710529F49091E8009E779093B4
:10324000E80090E06115710551F4911108C080917A
:10325000E80082FF35C080E00895BC01F2CF809184
:10326000EE018823C9F18530C9F18091E80083FD22
:1032700031C08091E80082FDEACF8091E80080FFB4
:10328000E1CF2091F3008091F200322F282F6115B9
:10329000710519F02830310558F091E028303105DA
:1032A00009F090E02091E8002E772093E800CACF43
:1032B00081918093F100615071092F5F3F4FE7CFFB
:1032C0008091EE01882341F0853041F08091E80043
:1032D00083FFBDCF81E0089582E0089583E00895E3
:1032E000FC018091F5019091F60186179707A0F0F7
:1032F0006115710529F48091E8008E778093E800CC
:1033000090E06115710551F4911108C08091E800B9
:1033100082FF36C080E00895BC01F2CF8091EE01BB
:103320008823D1F18530D1F18091E80083FD32C04E
:103330008091E80082FDEACF8091E80080FFE1CF34
:103340002091F3008091F200322F282F6115710532
:1033500019F02830310558F091E02830310509F096
:1033600090E08091E8008E778093E800CACF849146
:103370008093F1003196615071092F5F3F4FE6CF86
:103380008091EE01882341F0853041F08091E80082
:1033900083FFBCCF81E0089582E0089583E0089523
:1033A000982F973028F08F708093E90081E008957E
:1033B0009093E900242F762F50E0981731F0709108
:1033C000EC002091ED005091F00021FD02C09F5FC4
:1033D000E8CF3091EB003E7F3093EB003091ED0071
:1033E0003D7F3093ED003091EB0031603093EB0086
:1033F0007093EC002093ED005093F0002091EE00CC
:1034000027FDE5CF80E008958091EF0187FF13C08D
:103410008091E80082FF06C08091E8008B7780935E
:10342000E80004C08091EE018111F2CF08958091EF
:10343000EE018823D9F38091E80080FFF8CF8091D6
:10344000E8008E77ECCF2091E4003091E50085E62E
:103450009091EC0090FF06C09091E80090FF06C0AC
:1034600080E008959091E80092FDFACF9091EE01EE
:10347000992391F0953091F09091EB0095FD10C05B
:103480004091E4005091E5002417350709F381507D
:103490009A01F1F684E0089582E0089583E00895AA
:1034A00081E008950E94C01A0E94C81AE0EEF0E080
:1034B000808181608083E8EDF0E080818F77808378
:1034C00019BCA7EDB0E08C918E7F8C9380818F7EAC
:1034D00080831092ED0108950F931F93CF93DF9394
:1034E0000E94C01A0E94C81AC8EDD0E088818F7768
:1034F000888388818068888388818F7D888319BCD0
:103500001092EE011092EA011092EC011092EB0180
:1035100000EE10E0F80180818B7F808388818160DC
:10352000888342E060E080E00E94D019E1EEF0E0A4
:1035300080818E7F8083E2EEF0E0808181608083F5
:10354000808188608083F80180818E7F808388817C
:1035500080618883DF91CF911F910F910895E8EDED
:10356000F0E080818F7E8083E7EDF0E080818160F4
:10357000808384E082BF81E08093ED010C946C1A1B
:10358000E8EDF0E080818E7F80831092E200089564
:103590001092DA001092E10008951F920F920FB678
:1035A0000F9211242F933F934F935F936F937F93C9
:1035B0008F939F93AF93BF93EF93FF938091E1001D
:1035C00082FF0BC08091E20082FF07C08091E10082
:1035D0008B7F8093E1000E94301D8091DA0080FF94
:1035E00019C08091D80080FF15C08091DA008E7FCD
:1035F0008093DA008091D90080FF94C080E189BD7A
:1036000082E189BD09B400FEFDCF81E08093EE0127
:103610000E9446178091E10080FF19C08091E2006E
:1036200080FF15C08091E2008E7F8093E200809140
:10363000E20080618093E2008091D80080628093F4
:10364000D80019BC85E08093EE010E945817809144
:10365000E10084FF29C08091E20084FF25C080E161
:1036600089BD82E189BD09B400FEFDCF8091D800FB
:103670008F7D8093D8008091E1008F7E8093E10060
:103680008091E2008F7E8093E2008091E200816071
:103690008093E2008091EA01882309F449C084E024
:1036A0008093EE010E9459178091E10083FF29C0A9
:1036B0008091E20083FF25C08091E100877F8093A5
:1036C000E10082E08093EE011092EA018091E10036
:1036D0008E7F8093E1008091E2008E7F8093E200F4
:1036E0008091E20080618093E20042E060E080E04F
:1036F0000E94D0198091F00088608093F0000E94B1
:103700005717FF91EF91BF91AF919F918F917F914B
:103710006F915F914F913F912F910F900FBE0F903E
:103720001F90189519BC1092EE010E94541772CF89
:103730008091E30087FD02C081E0B2CF83E0B0CF8B
:103740001F920F920FB60F9211242F933F934F9316
:103750005F936F937F938F939F93AF93BF93CF9319
:10376000EF93FF93C091E900CF708091EC0010922D
:10377000E9008091F000877F8093F00078940E94A8
:10378000DC1B1092E9008091F00088608093F000CB
:10379000C093E900FF91EF91CF91BF91AF919F91BD
:1037A0008F917F916F915F914F913F912F910F90EA
:1037B0000FBE0F901F9018951F93CF93DF93CDB737
:1037C000DEB7AA970FB6F894DEBF0FBECDBFEFEEFF
:1037D000F1E08091F100819321E0E73FF207C9F722
:1037E0000E946F178091E80083FF42C08091EF0133
:1037F0009091F0019A3008F03BC0E92FF0E0ED5FC6
:10380000F34E0C94921E0D1C311C381C311C381CBC
:103810008C1CAE1C381C031D101D803879F08238BA
:1038200039F58091F3018F708093E9008091EB006E
:1038300085FB882780F91092E90006C08091EB0192
:103840009091EC01911182609091E800977F9093A4
:10385000E8008093F1001092F1008091E8008E77EB
:103860002DC0282F2D7F21F48823D1F0823059F1EB
:103870008091E80083FF0AC08091E800877F8093F1
:10388000E8008091EB0080628093EB00AA960FB66F
:10389000F894DEBF0FBECDBFDF91CF911F91089589
:1038A0008091F101813021F7933009F080E080931D
:1038B000EC011092E9008091E800877F8093E80096
:1038C0000E94041AD5CF8091F1018111F2CF80912D
:1038D000F3018F7069F28093E9002091EB0020FFE3
:1038E000E8CF933031F48091EB0080628093EB005D
:1038F000E0CF9091EB0090619093EB0021E030E0FD
:1039000001C0220F8A95EAF72093EA001092EA009C
:103910008091EB008860EACF8111AACF1091F1016C
:103920001F778091E3008078812B8093E300809162
:10393000E800877F8093E8000E94041A8091E800E5
:1039400080FFFCCF8091E30080688093E30083E0F8
:10395000111101C082E08093EE018ACF805882303D
:1039600008F086CF8091F1019091F2018C3D23E027
:103970009207A1F583E08A838AE289834FB7F8949E
:10398000DE01139620E03EE051E2E32FF0E0509399
:103990005700E49120FF03C0E295EF703F5FEF70A6
:1039A0008E2F90E0EA30C0F0C7968D939D932F5FE5
:1039B000243159F74FBF8091E800877F8093E8005A
:1039C0006AE270E0CE0101960E9411198091E80030
:1039D0008B778093E8004CCFC096E7CFAE014F5F66
:1039E0005F4F6091F3010E945718BC01892B09F4C5
:1039F0003FCF9091E800977F9093E80089819A816A
:103A00000E947019E3CF803809F032CF8091E8002E
:103A1000877F8093E8008091EA018093F1001DCFB9
:103A2000811126CF9091F101923008F021CF809141
:103A3000E800877F8093E8009093EA010E94041ACF
:103A40008091EA01882331F084E08093EE010E94A6
:103A50005B170ECF8091E30087FDF6CF81E0F5CFB5
:103A60000895CF938091EE01882399F0C091E900E9
:103A7000CF708091EC0080FD0EC080E0C82B1092CA
:103A8000E9008091E80083FD0E94DC1BCF70C093A9
:103A9000E900CF91089580E8F1CF0E94541D689409
:103AA000B1110C94E31D08950E94C81D88F09F5722
:103AB00098F0B92F9927B751B0F0E1F0660F771F52
:103AC000881F991F1AF0BA95C9F714C0B13091F048
:103AD0000E94E21DB1E008950C94E21D672F782F3B
:103AE0008827B85F39F0B93FCCF38695779567950D
:103AF000B395D9F73EF490958095709561957F4F79
:103B00008F4F9F4F0895E89409C097FB3EF490951E
:103B10008095709561957F4F8F4F9F4F9923A9F0A6
:103B2000F92F96E9BB279395F69587957795679535
:103B3000B795F111F8CFFAF4BB0F11F460FF1BC079
:103B40006F5F7F4F8F4F9F4F16C0882311F096E90C
:103B500011C0772321F09EE8872F762F05C06623BA
:103B600071F096E8862F70E060E02AF09A95660F73
:103B7000771F881FDAF7880F9695879597F908952C
:103B800057FD9058440F551F59F05F3F71F047950E
:103B9000880F97FB991F61F09F3F79F087950895F3
:103BA000121613061406551FF2CF4695F1DF08C012
:103BB000161617061806991FF1CF8695710561052F
:103BC00008940895E894BB2766277727CB0197F9D7
:103BD00008950E94FC1D0C946D1E0E945F1E38F01B
:103BE0000E94661E20F0952311F00C94561E0C9432
:103BF0005C1E11240C94E31D0E94C01D70F3959F60
:103C0000C1F3950F50E0551F629FF001729FBB27D3
:103C1000F00DB11D639FAA27F00DB11DAA1F649F6F
:103C20006627B00DA11D661F829F2227B00DA11D22
:103C3000621F739FB00DA11D621F839FA00D611DA8
:103C4000221F749F3327A00D611D231F849F600DC9
:103C5000211D822F762F6A2F11249F5750409AF0F2
:103C6000F1F088234AF0EE0FFF1FBB1F661F771F7E
:103C7000881F91505040A9F79E3F510580F00C9449
:103C8000561E0C94E31D5F3FE4F3983ED4F38695F3
:103C900077956795B795F795E7959F5FC1F7FE2BE9
:103CA000880F911D9695879597F9089597F99F67C5
:103CB00080E870E060E008959FEF80EC08950024B4
:103CC0000A941616170618060906089500240A9481
:103CD00012161306140605060895092E0394000C07
:103CE00011F4882352F0BB0F40F4BF2B11F460FF96
:103CF00004C06F5F7F4F8F4F9F4F089597FB072E34
:103D000016F4009407D077FD09D00E94981E07FC96
:103D100005D03EF4909581959F4F089570956195DB
:103D20007F4F0895EE0FFF1F0590F491E02D099449
:103D3000AA1BBB1B51E107C0AA1FBB1FA617B707D1
:103D400010F0A61BB70B881F991F5A95A9F78095ED
:103D50009095BC01CD010895F999FECF92BD81BD2A
:103D6000F89A992780B50895A8E1B0E042E050E0C4
:103D70000C94D41E262FF999FECF92BD81BDF89ADE
:103D8000019700B4021639F01FBA20BD0FB6F8949F
:103D9000FA9AF99A0FBE08950196272F0E94BB1E2A
:103DA0000C94BA1EDC01CB01FC01F999FECF06C0D0
:103DB000F2BDE1BDF89A319600B40D9241505040E9
:083DC000B8F70895F894FFCF55
:103DC80094012808140A321E6416F616D1169B169A
:103DD8006716013331404D363997024A021402DB27
:0A3DE800016E018701A001B901007E
:00000001FF
